:04000000A001C12F6B
:100F7600C52708008301080083010800E427D2275B
:100F8600C527C22F8301A001CD2F0B1181010B1D97
:100F9600CA2FA00A1030200203180800C82F8301A8
:100FA6000130870602308706043087060830870638
:100FB6001030870620308706403087068030870647
:100FC6000800FF308301870003171E129E121E13AE
:100FD6009E131F109F108316031307108710071107
:100FE60087110712871207138713811201128111C5
:0A0FF6000114811401158312080094
:02400E00D430AC
:00000001FF
