:020000002028B6
:10000800FF0003088301A4000B1A8B1C0C288B101B
:1000180083120313051916287920051919280130A8
:10002800A0061928201C1928201403138312240859
:100038008300FF0E7F0E0900A001A101A201A30108
:100048008128013083018700850103171E129E1243
:100058001E139E131F109F1083160313071087107B
:1000680007118711071287120713871383120317C3
:100078001E11831603130515811201128111011037
:100088008110011583122010A101831601130B168C
:100098008B108B1783120800830120185F28210B0F
:1000A80056285928A108031D5C288030A1000800A3
:1000B8000310A10C08002108803A031DA108031DA4
:1000C8006828A101A10A08000310A10D08000D303D
:1000D8008301A2002730A300FF30A207031CA3035B
:1000E800230822040319080070280B1164308312B6
:1000F800031381000B1908007E2825205020862034
:100108006B208228830121088700080083010800EA
:02400E00D430AC
:00000001FF
