:100000002030840025300820A62F04068001840AB1
:0A0010000406031D052864000034F7
:100F4C00DE27BB27C427AC27B327A72F8301201C80
:100F5C00B12F07140800071008000B11831203139C
:100F6C00220981000B190800B82F02308301A3005D
:100F7C00A30BBE2F9F149F1C0800C12F83011E08BA
:100F8C00FF000310FF0D0310FF0D03107F0DA200D7
:100F9C000130A006080062308301A300A401FF30D9
:100FAC00A307031CA4032408230403190800D52F4A
:100FBC008301860183160616831203171F1503136C
:100FCC00870183160710831203171E12831603134F
:100FDC008112011281150114811401111F169F1623
:100FEC001F1783121F131F119F151F129F169F137C
:040FFC001F140800B6
:02400E00D430AC
:00000001FF
