:08000000A001A101A201C32F20
:100F7A00830108008301200887000800DF27C827AB
:100F8A00CD27BF27C42FD2279F149F1C0800CA2F22
:100F9A0083011E0E0F39A000080062308301A100F0
:100FAA00A201FF30A107031CA2032208210403198E
:100FBA000800D62F831603130616831203171F156C
:100FCA0003138701831607108710071187118312ED
:100FDA0003171E129E121E139E13831603131F1647
:100FEA009F161F1783121F131F119F151F129F167B
:060FFA009F131F14080004
:02400E00D430AC
:00000001FF
