:06000000A001A101C42FC4
:100F780083010800C92708008301200887000800AA
:100F8800E327D627C027C927C52F8301A101D12F61
:100F98000B1181010B1DCE2FA10A1030210203185D
:100FA8000800CC2F83012008803A031DA008031DE8
:100FB800E02FA001A00A08000310A00D08000130CE
:100FC8008301870003171E129E121E139E131F1003
:100FD8009F10831603130710871007118711071234
:100FE80087120713871381120112811101148114CA
:080FF80001158312A00108009D
:02400E00D430AC
:00000001FF
