:020000002828AE
:10000800FF0003088301A4008B190B1C0C280B109C
:1000180083120313051914288320051914282014A2
:10002800051D1A288320051D1F281E28201C1F288F
:1000380020141F28201083120313050885002408A4
:100048008300FF0E7F0E0900A001A101A201A301F8
:100058008B28013083018700850103171E129E1229
:100068001E139E131F109F1083160313071087106B
:1000780007118711071287120713871383120317B3
:100088001E11831603130515811201128111011027
:100098008110011583122010A101831616158B15E6
:1000A8000B108B17831205088500080083012018A0
:1000B8006928210B60286328A108031D6628803061
:1000C800A10008000310A10C08002108803A031DB4
:1000D800A108031D7228A101A10A08000310A10D9F
:1000E80008000D308301A2002730A300FF30A207CB
:1000F800031CA30323082204031908007A280B1100
:1001080064308312031381000B19080088282D20FE
:100118005A20902075208C28830121088700080028
:040128008301080047
:02400E00D430AC
:00000001FF
