:0600000000308A000F2809
:10000800FF000308F1000408F2000A08F3007E0864
:10001800F4008A11712883177B3084007E308A119E
:1000280019208A1183018A11212864008001840A19
:1000380004060319003404061A288A1127208A1195
:1000480024288A110F280F30831203179E000310EB
:10005800831203130030031801308700831603133B
:1000680007108710071187118514051183120317CC
:1000780099179916191519109910031000300318BB
:10008800013098001816831603138516031083127F
:10009800031300300318013090009014031000304F
:1000A800031801308F0003100030031801308E0050
:1000B8001014031083160313003003180130810055
:1000C80081128111011481140115831203138B16F7
:1000D8000B110A3081008B170800831203138B1E43
:1000E8007628772895280B1D7A287B2895280B11C8
:1000F80010100F08F00004300310F00CFF3E031D31
:100108008028700887000A30810003100030031827
:1001180001308E0003100030031801308F001014D6
:100128009728070887007408FE0073088A00720879
:0C013800840071088300FF0E7F0E090098
:02400E00D430AC
:00000001FF
