:0A000000A001A101A201A3019B2FA2
:100F2E008301210887000800DB27A927C027972700
:100F3E00B2279C2F0B1164308312031381000B19FF
:100F4E000800A62F830105190800A127051908001E
:100F5E000130A00608000D308301A2002730A30047
:100F6E00FF30A207031CA303230822040319080061
:100F7E00B72F83012018CF2F210BC62FC92FA10801
:100F8E00031DCC2F8030A10008000310A10C080017
:100F9E002108803A031DA108031DD82FA101A10A23
:100FAE0008000310A10D08000130830187008501A0
:100FBE0003171E129E121E139E131F109F108316D0
:100FCE0003130710871007118711071287120713D3
:100FDE008713831203171E1183160313051581122F
:100FEE000112811101108110011583122010A1012F
:020FFE000800E9
:02400E00D430AC
:00000001FF
