:08000000A001A101A201C12F22
:100F7A008301080083010800EA27C527D727C22F63
:100F8A00830101308706023087060430870608305D
:100F9A008706103087062030870640308706803063
:100FAA008706080003308301A100B230A200033093
:100FBA00A000E72FFF30A107031CA2032208210487
:100FCA00031DDF2FA00BDF2F0800FF3083018700EE
:100FDA0003171E129E121E139E131F109F108316B4
:100FEA0003130710871007118711071287120713B7
:060FFA00871383120800BA
:02400E00D430AC
:00000001FF
